{"abi":[{"type":"constructor","inputs":[],"stateMutability":"nonpayable"},{"type":"receive","stateMutability":"payable"},{"type":"function","name":"STARKGATE_ETH","inputs":[],"outputs":[{"name":"","type":"address","internalType":"address"}],"stateMutability":"view"},{"type":"function","name":"calculateTotalAmountNeeded","inputs":[{"name":"amount1","type":"uint256","internalType":"uint256"},{"name":"amount2","type":"uint256","internalType":"uint256"}],"outputs":[{"name":"","type":"uint256","internalType":"uint256"}],"stateMutability":"pure"},{"type":"function","name":"doubleDeposit","inputs":[{"name":"amount1","type":"uint256","internalType":"uint256"},{"name":"amount2","type":"uint256","internalType":"uint256"},{"name":"l2Recipient1","type":"uint256","internalType":"uint256"},{"name":"l2Recipient2","type":"uint256","internalType":"uint256"}],"outputs":[],"stateMutability":"payable"},{"type":"function","name":"doubleDepositEqual","inputs":[{"name":"amount","type":"uint256","internalType":"uint256"},{"name":"l2Recipient1","type":"uint256","internalType":"uint256"},{"name":"l2Recipient2","type":"uint256","internalType":"uint256"}],"outputs":[],"stateMutability":"payable"},{"type":"function","name":"emergencyWithdraw","inputs":[],"outputs":[],"stateMutability":"nonpayable"},{"type":"function","name":"getEstimatedFee","inputs":[],"outputs":[{"name":"","type":"uint256","internalType":"uint256"}],"stateMutability":"pure"},{"type":"function","name":"starkGate","inputs":[],"outputs":[{"name":"","type":"address","internalType":"contract IStarkGate"}],"stateMutability":"view"},{"type":"event","name":"DoubleDepositExecuted","inputs":[{"name":"amount1","type":"uint256","indexed":false,"internalType":"uint256"},{"name":"amount2","type":"uint256","indexed":false,"internalType":"uint256"},{"name":"l2Recipient1","type":"uint256","indexed":false,"internalType":"uint256"},{"name":"l2Recipient2","type":"uint256","indexed":false,"internalType":"uint256"},{"name":"totalEthSent","type":"uint256","indexed":false,"internalType":"uint256"}],"anonymous":false},{"type":"error","name":"InsufficientEth","inputs":[]},{"type":"error","name":"InvalidAmount","inputs":[]},{"type":"error","name":"InvalidL2Recipient","inputs":[]}],"bytecode":{"object":"0x60a060405234801561000f575f5ffd5b5073ae0ee0a63a2ce6baeeffe56e7714fb4efe48d41973ffffffffffffffffffffffffffffffffffffffff1660808173ffffffffffffffffffffffffffffffffffffffff1681525050608051610fef61009a5f395f81816102110152818161030001528181610395015281816107ac0152818161089c015281816109310152610ace0152610fef5ff3fe608060405260043610610073575f3560e01c8063c9771b991161004d578063c9771b9914610100578063db2e21bc1461012a578063f9a556da14610140578063fef542e81461015c5761007a565b80630c4c54921461007e5780632b2eead61461009a578063c5e75335146100d65761007a565b3661007a57005b5f5ffd5b61009860048036038101906100939190610b27565b610186565b005b3480156100a5575f5ffd5b506100c060048036038101906100bb9190610b8b565b610531565b6040516100cd9190610bd8565b60405180910390f35b3480156100e1575f5ffd5b506100ea6105e2565b6040516100f79190610c30565b60405180910390f35b34801561010b575f5ffd5b506101146105fa565b6040516101219190610bd8565b60405180910390f35b348015610135575f5ffd5b5061013e610681565b005b61015a60048036038101906101559190610c49565b61072c565b005b348015610167575f5ffd5b50610170610acc565b60405161017d9190610cf4565b60405180910390f35b5f84148061019357505f83145b156101ca576040517f2c5211c600000000000000000000000000000000000000000000000000000000815260040160405180910390fd5b5f8214806101d757505f81145b1561020e576040517fd15e516700000000000000000000000000000000000000000000000000000000815260040160405180910390fd5b5f7f000000000000000000000000000000000000000000000000000000000000000073ffffffffffffffffffffffffffffffffffffffff1663af8bc15e6040518163ffffffff1660e01b8152600401602060405180830381865afa158015610278573d5f5f3e3d5ffd5b505050506040513d601f19601f8201168201806040525081019061029c9190610d21565b90505f6002826102ac9190610d79565b85876102b89190610dba565b6102c29190610dba565b9050803410156102fe576040517fa01a9df600000000000000000000000000000000000000000000000000000000815260040160405180910390fd5b7f000000000000000000000000000000000000000000000000000000000000000073ffffffffffffffffffffffffffffffffffffffff1663e2bbb15883886103469190610dba565b88876040518463ffffffff1660e01b8152600401610365929190610ded565b5f604051808303818588803b15801561037c575f5ffd5b505af115801561038e573d5f5f3e3d5ffd5b50505050507f000000000000000000000000000000000000000000000000000000000000000073ffffffffffffffffffffffffffffffffffffffff1663e2bbb15883876103db9190610dba565b87866040518463ffffffff1660e01b81526004016103fa929190610ded565b5f604051808303818588803b158015610411575f5ffd5b505af1158015610423573d5f5f3e3d5ffd5b50505050507fb12dbf9c536b0940537bffe969f10483e4a28ab1520593ec0fe4a2a4304343d9868686863460405161045f959493929190610e14565b60405180910390a15f81346104749190610e65565b90505f811115610528575f3373ffffffffffffffffffffffffffffffffffffffff16826040516104a390610ec5565b5f6040518083038185875af1925050503d805f81146104dd576040519150601f19603f3d011682016040523d82523d5f602084013e6104e2565b606091505b5050905080610526576040517f08c379a000000000000000000000000000000000000000000000000000000000815260040161051d90610f33565b60405180910390fd5b505b50505050505050565b5f5f73ae0ee0a63a2ce6baeeffe56e7714fb4efe48d41973ffffffffffffffffffffffffffffffffffffffff1663af8bc15e6040518163ffffffff1660e01b8152600401602060405180830381865afa158015610590573d5f5f3e3d5ffd5b505050506040513d601f19601f820116820180604052508101906105b49190610d21565b90506002816105c39190610d79565b83856105cf9190610dba565b6105d99190610dba565b91505092915050565b73ae0ee0a63a2ce6baeeffe56e7714fb4efe48d41981565b5f73ae0ee0a63a2ce6baeeffe56e7714fb4efe48d41973ffffffffffffffffffffffffffffffffffffffff1663af8bc15e6040518163ffffffff1660e01b8152600401602060405180830381865afa158015610658573d5f5f3e3d5ffd5b505050506040513d601f19601f8201168201806040525081019061067c9190610d21565b905090565b5f3373ffffffffffffffffffffffffffffffffffffffff16476040516106a690610ec5565b5f6040518083038185875af1925050503d805f81146106e0576040519150601f19603f3d011682016040523d82523d5f602084013e6106e5565b606091505b5050905080610729576040517f08c379a000000000000000000000000000000000000000000000000000000000815260040161072090610f9b565b60405180910390fd5b50565b5f8303610765576040517f2c5211c600000000000000000000000000000000000000000000000000000000815260040160405180910390fd5b5f82148061077257505f81145b156107a9576040517fd15e516700000000000000000000000000000000000000000000000000000000815260040160405180910390fd5b5f7f000000000000000000000000000000000000000000000000000000000000000073ffffffffffffffffffffffffffffffffffffffff1663af8bc15e6040518163ffffffff1660e01b8152600401602060405180830381865afa158015610813573d5f5f3e3d5ffd5b505050506040513d601f19601f820116820180604052508101906108379190610d21565b90505f6002826108479190610d79565b6002866108549190610d79565b61085e9190610dba565b90508034101561089a576040517fa01a9df600000000000000000000000000000000000000000000000000000000815260040160405180910390fd5b7f000000000000000000000000000000000000000000000000000000000000000073ffffffffffffffffffffffffffffffffffffffff1663e2bbb15883876108e29190610dba565b87876040518463ffffffff1660e01b8152600401610901929190610ded565b5f604051808303818588803b158015610918575f5ffd5b505af115801561092a573d5f5f3e3d5ffd5b50505050507f000000000000000000000000000000000000000000000000000000000000000073ffffffffffffffffffffffffffffffffffffffff1663e2bbb15883876109779190610dba565b87866040518463ffffffff1660e01b8152600401610996929190610ded565b5f604051808303818588803b1580156109ad575f5ffd5b505af11580156109bf573d5f5f3e3d5ffd5b50505050507fb12dbf9c536b0940537bffe969f10483e4a28ab1520593ec0fe4a2a4304343d985868686346040516109fb959493929190610e14565b60405180910390a15f8134610a109190610e65565b90505f811115610ac4575f3373ffffffffffffffffffffffffffffffffffffffff1682604051610a3f90610ec5565b5f6040518083038185875af1925050503d805f8114610a79576040519150601f19603f3d011682016040523d82523d5f602084013e610a7e565b606091505b5050905080610ac2576040517f08c379a0000000000000000000000000000000000000000000000000000000008152600401610ab990610f33565b60405180910390fd5b505b505050505050565b7f000000000000000000000000000000000000000000000000000000000000000081565b5f5ffd5b5f819050919050565b610b0681610af4565b8114610b10575f5ffd5b50565b5f81359050610b2181610afd565b92915050565b5f5f5f5f60808587031215610b3f57610b3e610af0565b5b5f610b4c87828801610b13565b9450506020610b5d87828801610b13565b9350506040610b6e87828801610b13565b9250506060610b7f87828801610b13565b91505092959194509250565b5f5f60408385031215610ba157610ba0610af0565b5b5f610bae85828601610b13565b9250506020610bbf85828601610b13565b9150509250929050565b610bd281610af4565b82525050565b5f602082019050610beb5f830184610bc9565b92915050565b5f73ffffffffffffffffffffffffffffffffffffffff82169050919050565b5f610c1a82610bf1565b9050919050565b610c2a81610c10565b82525050565b5f602082019050610c435f830184610c21565b92915050565b5f5f5f60608486031215610c6057610c5f610af0565b5b5f610c6d86828701610b13565b9350506020610c7e86828701610b13565b9250506040610c8f86828701610b13565b9150509250925092565b5f819050919050565b5f610cbc610cb7610cb284610bf1565b610c99565b610bf1565b9050919050565b5f610ccd82610ca2565b9050919050565b5f610cde82610cc3565b9050919050565b610cee81610cd4565b82525050565b5f602082019050610d075f830184610ce5565b92915050565b5f81519050610d1b81610afd565b92915050565b5f60208284031215610d3657610d35610af0565b5b5f610d4384828501610d0d565b91505092915050565b7f4e487b71000000000000000000000000000000000000000000000000000000005f52601160045260245ffd5b5f610d8382610af4565b9150610d8e83610af4565b9250828202610d9c81610af4565b91508282048414831517610db357610db2610d4c565b5b5092915050565b5f610dc482610af4565b9150610dcf83610af4565b9250828201905080821115610de757610de6610d4c565b5b92915050565b5f604082019050610e005f830185610bc9565b610e0d6020830184610bc9565b9392505050565b5f60a082019050610e275f830188610bc9565b610e346020830187610bc9565b610e416040830186610bc9565b610e4e6060830185610bc9565b610e5b6080830184610bc9565b9695505050505050565b5f610e6f82610af4565b9150610e7a83610af4565b9250828203905081811115610e9257610e91610d4c565b5b92915050565b5f81905092915050565b50565b5f610eb05f83610e98565b9150610ebb82610ea2565b5f82019050919050565b5f610ecf82610ea5565b9150819050919050565b5f82825260208201905092915050565b7f4661696c656420746f2072657475726e206578636573732045544800000000005f82015250565b5f610f1d601b83610ed9565b9150610f2882610ee9565b602082019050919050565b5f6020820190508181035f830152610f4a81610f11565b9050919050565b7f456d657267656e6379207769746864726177616c206661696c656400000000005f82015250565b5f610f85601b83610ed9565b9150610f9082610f51565b602082019050919050565b5f6020820190508181035f830152610fb281610f79565b905091905056fea2646970667358221220fdee2f2a6074e94c9c98950749c89f953b60e8d98b06e548a2ba301241e84fc664736f6c634300081d0033","linkReferences":{}},"methodIdentifiers":{"STARKGATE_ETH()":"c5e75335","calculateTotalAmountNeeded(uint256,uint256)":"2b2eead6","doubleDeposit(uint256,uint256,uint256,uint256)":"0c4c5492","doubleDepositEqual(uint256,uint256,uint256)":"f9a556da","emergencyWithdraw()":"db2e21bc","getEstimatedFee()":"c9771b99","starkGate()":"fef542e8"},"id":19}